:020000040800F2
:100000000000022065790008DD760008E57600082A
:10001000ED760008F5760008FD7600080000000087
:10002000000000000000000000000000057700084C
:100030001377000800000000217700082F770008E0
:10004000B5790008B5790008B5790008B5790008D8
:10005000B5790008B5790008B5790008B5790008C8
:10006000B5790008B5790008B5790008B5790008B8
:10007000B5790008B5790008B5790008B5790008A8
:10008000B5790008B5790008B5790008B579000898
:10009000B5790008B5790008B5790008B579000888
:1000A000B5790008B5790008B5790008B579000878
:1000B000B57900083D770008B5790008B5790008E2
:1000C000B5790008B5790008B5790008B579000858
:1000D000B5790008B5790008B5790008B579000848
:1000E000B5790008B5790008B5790008B579000838
:1000F000B5790008B5790008B5790008B579000828
:10010000B5790008B5790008B5790008B579000817
:10011000B5790008B5790008B5790008B579000807
:10012000B579000851770008B5790008B57900085D
:10013000B5790008B5790008B5790008B5790008E7
:10014000B5790008B5790008B5790008B5790008D7
:10015000B5790008B5790008B5790008B5790008C7
:10016000B5790008B5790008B5790008B5790008B7
:10017000B5790008B5790008B579000800000000DD
:08018000B5790008B57900080B
:1001900081F0004102E000BF83F0004330B54FEA38
:1001A00041044FEA430594EA050F08BF90EA020FA5
:1001B0001FBF54EA000C55EA020C7FEA645C7FEA38
:1001C000655C00F0E2804FEA5454D4EB5555B8BF5B
:1001D0006D420CDD2C4480EA020281EA030382EACC
:1001E000000083EA010180EA020281EA0303362D5E
:1001F00088BF30BD11F0004F4FEA01314FF4801C31
:100200004CEA113102D0404261EB410113F0004F42
:100210004FEA03334CEA133302D0524263EB4303F9
:1002200094EA050F00F0A780A4F10104D5F1200E97
:100230000DDB02FA0EFC22FA05F2801841F10001F2
:1002400003FA0EF2801843FA05F359410EE0A5F1C6
:1002500020050EF1200E012A03FA0EFC28BF4CF0F7
:10026000020C43FA05F3C01851EBE37101F00045AD
:1002700007D54FF0000EDCF1000C7EEB00006EEBBA
:100280000101B1F5801F1BD3B1F5001F0CD3490844
:100290005FEA30004FEA3C0C04F101044FEA44529B
:1002A00012F5800F80F09A80BCF1004F08BF5FEA22
:1002B000500C50F1000041EB045141EA050130BD02
:1002C0005FEA4C0C404141EB0101013C28BFB1F514
:1002D000801FE9D291F0000F04BF01460020B1FA5F
:1002E00081F308BF2033A3F10B03B3F120020CDA32
:1002F0000C3208DD02F1140CC2F10C0201FA0CF010
:1003000021FA02F10CE002F11402D8BFC2F1200C74
:1003100001FA02F120FA0CFCDCBF41EA0C0190402A
:10032000E41AA2BF01EB0451294330BD6FEA040473
:100330001F3C1CDA0C340EDC04F11404C4F120025E
:1003400020FA04F001FA02F340EA030021FA04F370
:1003500045EA030130BDC4F10C04C4F1200220FAC7
:1003600002F001FA04F340EA0300294630BD21FA05
:1003700004F0294630BD94F0000F83F4801306BFCB
:1003800081F480110134013D4EE77FEA645C18BFBF
:100390007FEA655C29D094EA050F08BF90EA020F56
:1003A00005D054EA000C04BF1946104630BD91EA4E
:1003B000030F1EBF0021002030BD5FEA545C05D151
:1003C0004000494128BF41F0004130BD14F5800490
:1003D0003CBF01F5801130BD01F0004545F0FE4104
:1003E00041F470014FF0000030BD7FEA645C1ABF39
:1003F000194610467FEA655C1CBF0B46024650EA70
:10040000013406BF52EA033591EA030F41F400219B
:1004100030BD00BF90F0000F04BF0021704730B521
:100420004FF4806404F132044FF000054FF00001F6
:1004300050E700BF90F0000F04BF0021704730B5B7
:100440004FF4806404F1320410F0004548BF40428C
:100450004FF000013EE700BF42004FEAE2014FEAE1
:1004600031014FEA02701FBF12F07F4393F07F4FBC
:1004700081F06051704732F07F4208BF704793F0BF
:100480007F4F04BF41F40021704730B54FF46074D2
:1004900001F0004521F000411CE700BF50EA0102D5
:1004A00008BF704730B54FF000050AE050EA01027E
:1004B00008BF704730B511F0004502D5404261EBEE
:1004C00041014FF4806404F132045FEA915C3FF42F
:1004D000D8AE4FF003025FEADC0C18BF03325FEACC
:1004E000DC0C18BF033202EBDC02C2F1200300FA7D
:1004F00003FC20FA02F001FA03FE40EA0E0021FAA2
:1005000002F11444BDE600BF53B94AB9002908BF3F
:1005100000281CBF4FF0FF314FF0FF3000F00CB847
:10052000ADF1080C6DE904CE07F03CFDDDF804E008
:10053000DDE9022304B07047704700BF00000000EF
:1005400001F0FF01102A2BDB10F0070F08D010F884
:10055000013B013A8B422DD010F0070F42B3F6D188
:10056000F0B441EA012141EA014122F007047FF0A1
:1005700000070023F0E80256083C85EA010586EAF8
:10058000010685FA47F5A3FA87F586FA47F6A5FA34
:1005900087F68EB9EED1F0BC01F0FF0102F0070240
:1005A00032B110F8013B013A83EA010313B1F8D1EB
:1005B0000020704701387047002D06BF35460338CC
:1005C000073815F0010F07D1013015F4807F02BF05
:1005D000013015F4C03F0130F0BC0138704700BF56
:1005E000034613F8012B002AFBD1181A0138704773
:1005F00070B54FF0FF0C4CF4E06C1CEA11541DBFB9
:100600001CEA135594EA0C0F95EA0C0F00F0DEF883
:100610002C4481EA030621EA4C5123EA4C5350EA68
:10062000013518BF52EA033541F4801143F48013B9
:1006300038D0A0FB02CE4FF00005E1FB02E506F04A
:100640000042E0FB03E54FF00006E1FB03569CF09F
:10065000000F18BF4EF0010EA4F1FF04B6F5007FA5
:1006600064F5407404D25FEA4E0E6D4146EB060617
:1006700042EAC62141EA55514FEAC52040EA5E50A0
:100680004FEACE2EB4F1FD0C88BFBCF5E06F1ED84A
:10069000BEF1004F08BF5FEA500E50F1000041EB81
:1006A000045170BD06F0004646EA010140EA02002E
:1006B00081EA0301B4EB5C04C2BFD4EB0C0541EA50
:1006C000045170BD41F480114FF0000E013C00F365
:1006D000AB8014F1360FDEBF002001F0004170BD89
:1006E000C4F10004203C35DA0C341BDC04F11404A2
:1006F000C4F1200500FA05F320FA04F001FA05F22E
:1007000040EA020001F0004221F0004110EBD370FA
:1007100021FA04F642EB06015EEA430E08BF20EA26
:10072000D37070BDC4F10C04C4F1200500FA04F3C9
:1007300020FA05F001FA04F240EA020001F000415B
:1007400010EBD37041F100015EEA430E08BF20EACE
:10075000D37070BDC4F1200500FA05F24EEA020E16
:1007600020FA04F301FA05F243EA020321FA04F045
:1007700001F0004121FA04F220EA020000EBD370FC
:100780005EEA430E08BF20EAD37070BD94F0000FFC
:100790000FD101F00046400041EB010111F4801F30
:1007A00008BF013CF7D041EA060195F0000F18BFE1
:1007B000704703F00046520043EB030313F4801F1D
:1007C00008BF013DF7D043EA0603704794EA0C0FD7
:1007D0000CEA135518BF95EA0C0F0CD050EA4106ED
:1007E00018BF52EA4306D1D181EA030101F000416A
:1007F0004FF0000070BD50EA410606BF1046194692
:1008000052EA430619D094EA0C0F02D150EA01369D
:1008100013D195EA0C0F05D152EA03361CBF1046DE
:1008200019460AD181EA030101F0004141F0FE417D
:1008300041F470014FF0000070BD41F0FE4141F401
:10084000780170BD70B54FF0FF0C4CF4E06C1CEA01
:1008500011541DBF1CEA135594EA0C0F95EA0C0FB6
:1008600000F0A7F8A4EB050481EA030E52EA033571
:100870004FEA013100F088804FEA03334FF0805592
:1008800045EA131343EA12634FEA022245EA1115BF
:1008900045EA10654FEA00260EF000419D4208BF70
:1008A000964244F1FD0404F5407402D25B084FEA1D
:1008B0003202B61A65EB03055B084FEA32024FF4C9
:1008C00080104FF4002CB6EB020E75EB030E22BF26
:1008D000B61A754640EA0C005B084FEA3202B6EBE6
:1008E000020E75EB030E22BFB61A754640EA5C0095
:1008F0005B084FEA3202B6EB020E75EB030E22BF25
:10090000B61A754640EA9C005B084FEA3202B6EB25
:10091000020E75EB030E22BFB61A754640EADC00E4
:1009200055EA060E18D04FEA051545EA16754FEA46
:1009300006164FEAC30343EA52734FEAC2025FEA64
:100940001C1CC0D111F4801F0BD141EA00014FF0F3
:1009500000004FF0004CB6E711F4801F04BF0143C4
:100960000020B4F1FD0C88BFBCF5E06F3FF6AFAEE0
:10097000B5EB030C04BFB6EB020C5FEA500C50F170
:10098000000041EB045170BD0EF0004E4EEA1131F3
:1009900014EB5C04C2BFD4EB0C0541EA045170BDFA
:1009A00041F480114FF0000E013C90E645EA060E3E
:1009B0008DE60CEA135594EA0C0F08BF95EA0C0F6C
:1009C0003FF43BAF94EA0C0F0AD150EA01347FF4B4
:1009D00034AF95EA0C0F7FF425AF104619462CE78B
:1009E00095EA0C0F06D152EA03353FF4FDAE1046EE
:1009F000194622E750EA410618BF52EA43067FF43F
:100A0000C5AE50EA41047FF40DAF52EA43057FF4CE
:100A1000EBAE12E74FF0FF3C06E000BF4FF0010CD9
:100A200002E000BF4FF0010C4DF804CD4FEA410C3D
:100A30007FEA6C5C4FEA430C18BF7FEA6C5C1BD00A
:100A400001B050EA410C0CBF52EA430C91EA030F8B
:100A500002BF90EA020F0020704710F1000F91EAE8
:100A6000030F58BF994208BF90422CBFD8176FEAB6
:100A7000E37040F0010070474FEA410C7FEA6C5C84
:100A800002D150EA013C07D14FEA430C7FEA6C5C8B
:100A9000D6D152EA033CD3D05DF8040B704700BFB7
:100AA0008446104662468C461946634600E000BF05
:100AB00001B5FFF7B7FF002848BF10F1000F01BDD7
:100AC0004DF808EDFFF7F4FF0CBF012000205DF8A2
:100AD00008FB00BF4DF808EDFFF7EAFF34BF012027
:100AE00000205DF808FB00BF4DF808EDFFF7E0FFC0
:100AF00094BF012000205DF808FB00BF4DF808ED11
:100B0000FFF7CEFF94BF012000205DF808FB00BF77
:100B10004DF808EDFFF7C4FF34BF012000205DF859
:100B200008FB00BF4FEA410C7FEA6C5C02D150EA3F
:100B3000013C0AD14FEA430C7FEA6C5C02D152EAD5
:100B4000033C02D14FF0000070474FF001007047A6
:100B50004FEA410212F5001215D211D56FF47873E5
:100B6000B3EB625212D94FEAC12343F0004343EA88
:100B7000505311F0004F23FA02F018BF4042704763
:100B80004FF00000704750EA013005D111F00040ED
:100B900008BF6FF0004070474FF00000704700BF83
:100BA00010B5054C237833B9044B13B10448AFF3A7
:100BB00000800123237010BDD80100200000000038
:100BC00074AC000808B5034B1BB103490348AFF3ED
:100BD000008008BD00000000DC01002074AC0008AB
:100BE00080B400AF064BD3F88830054A43F4700355
:100BF000C2F8883000BFBD465DF8047B704700BF77
:100C000000ED00E080B588B002AFF860B9607A60AE
:100C10003B6000233B61FB6893F82430012B01D13A
:100C200002238AE0FB68012283F82420FB68022269
:100C300083F82520FB681B681A68FB681B6842F470
:100C400080421A60FB681B681A68FB681B6822F008
:100C500002021A60FB681B681968FB681B68BA68A7
:100C60000A431A60FB689B6B364ADA63FB689B6B2E
:100C7000354ADA64FB689B6B00221A65FB68002228
:100C80009A62FB6800221A633B68B3F5803F0CD27E
:100C9000FB68986BFB681B68283319463B687A68C9
:100CA00002F058FA0346FB753AE0FB689B6B254A55
:100CB0005A64FB6801229A62FB683A68DA62FB6850
:100CC0007A685A6309E0FB68DB6A5A08FB68DA62F3
:100CD000FB689B6A5A00FB689A62FB68DB6AB3F5A3
:100CE000803FF0D2FB689B6A9A1EFB689A62FB68A1
:100CF0009A6AFB681A63FB68DB6A9B007A68134494
:100D00003B61FB68986BFB681B6828331946FB68DE
:100D1000DB6A00933B697A6800F0E6FF0346FB75E7
:100D2000FB681B681A68FB681B6842F001021A60C6
:100D3000FB68002283F82420FB7D18461837BD4647
:100D400080BD00BF190E0008430F000880B584B0B5
:100D500000AF7860294B1B685B08294AA2FB03237C
:100D60009B08BB600023FB737B6893F82430012B46
:100D700001D102233EE07B68012283F824207B68B6
:100D8000022283F825207B681B681A687B681B6831
:100D900022F001021A60BB685A1EBA60002B08D10B
:100DA0007B68DB6B43F020027B68DA630323FB7311
:100DB00006E07B681B681B6803F00103002BEAD187
:100DC0007B681B681A687B681B6822F480421A6083
:100DD0007B689B6B184602F015FA7B68DA6B7B68C0
:100DE000DA637B68012283F825207B68002283F880
:100DF0002420FB7B18461037BD4680BD0000002034
:100E00009324499280B483B000AF786000BF0C3760
:100E1000BD465DF8047B704780B584B000AF786054
:100E20000023FB607B689B6BBB60BB689B6A002BED
:100E300043D0BB689B6B1B681B6803F40023FB60FB
:100E4000BB689B6A03F00103002B18D1FB68002BE1
:100E500015D0BB689B6B1B68DB68FB60BB68986B3D
:100E6000BB68DB6ADA00FB6813440022194602F013
:100E700083F8BB689B6A5A1EBB689A6244E0BB68F1
:100E80009B6B1B681B6803F40023002B3CD1BB68E1
:100E90009B6B1B681B69FB60BB68986BBB68DB6A5C
:100EA000DA00FB6813440122194602F065F8BB68BA
:100EB0009B6A5A1EBB689A6226E0BB689B6B1B68E4
:100EC0001B6803F40023002B06D0BB689B6B1B68D8
:100ED000BA68526BDA6017E0BB689B6B1B681B68D3
:100EE00003F40023002B0FD1BB685B6BFB60BB6876
:100EF000DB6A9900BB689B6B1B68FA680A441A613D
:100F0000BB681A6BBB689A62BB689A6ABB681B6B4A
:100F10009A4212D1BB681B68DA68BB681B6842F052
:100F20000102DA60BB681B681B6803F00203022B36
:100F300003D1BB68012283F8252000BF1037BD46CE
:100F400080BD80B584B000AF78607B689B6BFB6030
:100F5000FB689B6B5B6D022B03D0FB68012283F85F
:100F60002520F868FFF74EFF00BF1037BD4680BD53
:100F700080B582B000AF78607B68002B01D101237F
:100F80005FE07B6893F82530DBB2002B09D17B68EA
:100F9000002283F82420786806F018F8786806F0B4
:100FA00015F87B68022283F825207B681B681B6884
:100FB0007A68126823F47F6323F0080313607B6868
:100FC0001B6819687B685A687B685B691A437B6891
:100FD000DB681A437B681B691A437B689B681A436A
:100FE0007B689B691A437B681B6A1A437B681B6892
:100FF0000A431A607B685B68102B12D17B681B7FE9
:101000001A467B685B7F1B021A437B689B7F1B042D
:1010100042EA03017B68DB7F1A067B681B680A4390
:101020009A617B681B68DA687B681B6842F01E0265
:10103000DA607B680022DA637B68012283F825206E
:10104000002318460837BD4680BD000080B586B035
:1010500000AF78607B68002B01D1012367E27B68D9
:101060001B6803F00103002B75D0884B9B6803F0CD
:101070000C03042B0CD0854B9B6803F00C03082B4E
:1010800012D1824B5B6803F48003B3F5800F0BD160
:101090007E4B1B6803F40033002B5BD07B685B68DE
:1010A000002B57D1012342E27B685B68B3F5803F98
:1010B00006D1764B1B68754A43F4803313601DE0FC
:1010C0007B685B68B3F5A02F0CD1704B1B686F4A2F
:1010D00043F4802313606D4B1B686C4A43F48033E8
:1010E00013600BE0694B1B68684A23F4803313607C
:1010F000664B1B68654A23F4802313607B685B683A
:10110000002B13D002F0D0FC386108E002F0CCFCD8
:1011100002463B69D31A642B01D9032307E25B4BD8
:101120001B6803F40033002BF0D014E002F0BCFC89
:10113000386108E002F0B8FC02463B69D31A642B20
:1011400001D90323F3E1514B1B6803F40033002B57
:10115000F0D100E000BF7B681B6803F00203002BA6
:1011600063D04A4B9B6803F00C03002B0BD0474B1A
:101170009B6803F00C03082B1CD1444B5B6803F401
:101180008003002B16D1414B1B6803F00203002B98
:1011900005D07B68DB68012B01D00123C7E13B4B05
:1011A0001B6823F0F8027B681B69DB003749134397
:1011B0000B603AE07B68DB68002B20D0344B0122C7
:1011C0001A6002F071FC386108E002F06DFC024622
:1011D0003B69D31A022B01D90323A8E12B4B1B68CF
:1011E00003F00203002BF0D0284B1B6823F0F80219
:1011F0007B681B69DB00254913430B6015E0244B1A
:1012000000221A6002F050FC386108E002F04CFC49
:1012100002463B69D31A022B01D9032387E11B4BFA
:101220001B6803F00203002BF0D17B681B6803F0FE
:101230000803002B36D07B685B69002B16D0154B5A
:1012400001221A6002F030FC386108E002F02CFC48
:1012500002463B69D31A022B01D9032367E10B4BEA
:101260005B6F03F00203002BF0D01BE0094B002260
:101270001A6002F019FC38610EE002F015FC02461B
:101280003B69D31A022B07D9032350E100380240EF
:1012900000004742800E4742884B5B6F03F0020319
:1012A000002BEAD17B681B6803F00403002B00F0DD
:1012B00097800023FB75814B1B6C03F08053002B40
:1012C0000FD10023BB607D4B1B6C7C4A43F08053E5
:1012D00013647A4B1B6C03F08053BB60BB68012323
:1012E000FB75774B1B6803F48073002B18D1744B8C
:1012F0001B68734A43F48073136002F0D5FB3861B6
:1013000008E002F0D1FB02463B69D31A022B01D957
:1013100003230CE16A4B1B6803F48073002BF0D0AD
:101320007B689B68012B06D1644B1B6F634A43F0BB
:10133000010313671CE07B689B68052B0CD15F4B96
:101340001B6F5E4A43F0040313675C4B1B6F5B4AE1
:1013500043F0010313670BE0584B1B6F574A23F010
:1013600001031367554B1B6F544A23F004031367A3
:101370007B689B68002B15D002F096FB38610AE071
:1013800002F092FB02463B69D31A41F28832934243
:1013900001D90323CBE0494B1B6F03F00203002B61
:1013A000EED014E002F080FB38610AE002F07CFB32
:1013B00002463B69D31A41F28832934201D9032392
:1013C000B5E03E4B1B6F03F00203002BEED1FB7D1B
:1013D000012B05D1394B1B6C384A23F08053136421
:1013E0007B689B69002B00F0A180344B9B6803F065
:1013F0000C03082B5CD07B689B69022B41D1314BDD
:1014000000221A6002F050FB386108E002F04CFB49
:1014100002463B69D31A022B01D9032387E0274BED
:101420001B6803F00073002BF0D17B68DA697B68DE
:101430001B6A1A437B685B6A9B011A437B689B6A41
:101440005B08013B1B041A437B68DB6A1B061B49D4
:1014500013434B601B4B01221A6002F025FB3861DD
:1014600008E002F021FB02463B69D31A022B01D9A6
:1014700003235CE0114B1B6803F00073002BF0D0DA
:1014800054E0104B00221A6002F00EFB386108E0B5
:1014900002F00AFB02463B69D31A022B01D903234F
:1014A00045E0064B1B6803F00073002BF0D13DE0D4
:1014B0007B689B69012B07D1012338E0003802408B
:1014C00000700040600047421B4B5B68FB607B681C
:1014D0009B69012B28D0FB6803F480027B68DB69E1
:1014E0009A4221D1FB6803F03F027B681B6A9A4253
:1014F0001AD1FA6847F6C07313407A68526A9201AB
:10150000934211D1FB6803F440327B689B6A5B080D
:10151000013B1B049A4207D1FB6803F070627B68B1
:10152000DB6A1B069A4201D0012300E00023184623
:101530001837BD4680BD00BF0038024080B584B07A
:1015400000AF786039607B68002B01D10123CCE0CB
:10155000684B1B6803F007033A689A420CD9654B45
:101560003A68D2B21A70634B1B6803F007033A68FB
:101570009A4201D00123B8E07B681B6803F00203A4
:10158000002B20D07B681B6803F00403002B05D0E0
:10159000594B9B68584A43F4E05393607B681B683F
:1015A00003F00803002B05D0534B9B68524A43F4C9
:1015B00060439360504B9B6823F0F0027B689B680C
:1015C0004D4913438B607B681B6803F00103002BBC
:1015D00044D07B685B68012B07D1474B1B6803F441
:1015E0000033002B19D101237FE07B685B68022B5D
:1015F00003D07B685B68032B07D13F4B1B6803F06C
:101600000073002B09D101236FE03B4B1B6803F0F3
:101610000203002B01D1012367E0374B9B6823F0C5
:1016200003027B685B68344913438B6002F03CFA29
:10163000F8600AE002F038FA0246FB68D31A41F279
:101640008832934201D903234FE02B4B9B6803F070
:101650000C027B685B689B009A42EBD1254B1B68B0
:1016600003F007033A689A420CD2224B3A68D2B28E
:101670001A70204B1B6803F007033A689A4201D0A6
:10168000012332E07B681B6803F00403002B08D0C1
:10169000194B9B6823F4E0527B68DB6816491343BF
:1016A0008B607B681B6803F00803002B09D0124B8A
:1016B0009B6823F460427B681B69DB000E4913437F
:1016C0008B6000F021F802460B4B9B681B0903F06E
:1016D0000F030A49CB5C22FA03F3094A1360094B52
:1016E0001B68184602F09CF9002318461037BD46C7
:1016F00080BD00BF003C024000380240F0AE000850
:1017000000000020040000202DE9B04F94B000AF8D
:1017100000237B640023FB6400233B640023BB6441
:10172000794B9B6803F00C03082B0DD0082B00F2BB
:10173000E180002B02D0042B03D0DBE0734BBB64B1
:10174000DBE0734BBB64D8E06F4B5B6803F03F0397
:101750007B646D4B5B6803F48003002B63D06A4BA2
:101760005B689B090022BB63FA63BB6BC3F308038E
:101770003B6300237B63D7E90C4522462B464FF0A1
:1017800000004FF00001590141EAD26150010246C8
:101790000B462146511A3961294663EB01037B61EF
:1017A0004FF000024FF00003D7E904AB59468B011C
:1017B000514643EA916351468A015146B2EB010812
:1017C000594663EB01094FF000024FF000034FEA66
:1017D000C90343EA58734FEAC80290469946234624
:1017E00018EB0303BB602B4649EB0303FB604FF090
:1017F00000024FF00003D7E9024529464B0221467B
:1018000043EAD15321464A02104619467B6C002216
:10181000BB62FA62D7E90A23FEF776FE02460B4660
:101820001346FB6458E0384B5B689B09002218465E
:101830001146C0F308033B6200237B62D7E90889A5
:1018400042464B464FF000004FF00001590141EA7B
:10185000D261500102460B464146B2EB010A4946AD
:1018600063EB010B4FF000024FF000034FEA8B13C4
:1018700043EA9A634FEA8A12B2EB0A0463EB0B0560
:101880004FF000024FF00003EB0043EA5473E20014
:1018900014461D464346E3183B604B4645EB0303A5
:1018A0007B604FF000024FF00003D7E90045294666
:1018B0008B02214643EA915321468A02104619467B
:1018C0007B6C0022BB61FA61D7E90623FEF71CFEA0
:1018D00002460B461346FB640B4B5B681B0C03F084
:1018E000030301335B003B64FA6C3B6CB2FBF3F324
:1018F000BB6402E0054BBB6400BFBB6C18465037AD
:10190000BD46BDE8B08F00BF003802400024F4009F
:1019100000127A0080B400AF034B1B681846BD4626
:101920005DF8047B704700BF0000002080B500AF69
:10193000FFF7F0FF0246054B9B689B0A03F0070385
:101940000349CB5C22FA03F3184680BD00380240FD
:1019500000AF000880B500AFFFF7DCFF0246054B83
:101960009B685B0B03F007030349CB5C22FA03F38C
:10197000184680BD0038024000AF000880B489B02E
:1019800000AF7860396000237B6100233B61002356
:10199000BB610023FB616BE10122FB6902FA03F3E7
:1019A0007B613B681B687A6913403B613A697B69DC
:1019B0009A4240F05A813B685B6803F00303012BB5
:1019C00005D03B685B6803F00303022B30D17B68D2
:1019D0009B68BB61FB695B00032202FA03F3DB43F4
:1019E000BA691340BB613B68DA68FB695B0002FAC5
:1019F00003F3BA691343BB617B68BA699A607B6879
:101A00005B68BB610122FB6902FA03F3DB43BA693D
:101A10001340BB613B685B681B0903F00102FB6973
:101A200002FA03F3BA691343BB617B68BA695A606F
:101A30003B685B6803F00303032B17D07B68DB680C
:101A4000BB61FB695B00032202FA03F3DB43BA6963
:101A50001340BB613B689A68FB695B0002FA03F3C1
:101A6000BA691343BB617B68BA69DA603B685B683B
:101A700003F00303022B23D1FB69DA087B680832E9
:101A800053F82230BB61FB6903F007039B000F2270
:101A900002FA03F3DB43BA691340BB613B681A697E
:101AA000FB6903F007039B0002FA03F3BA691343CF
:101AB000BB61FB69DA087B680832B96943F8221018
:101AC0007B681B68BB61FB695B00032202FA03F3BE
:101AD000DB43BA691340BB613B685B6803F00302F8
:101AE000FB695B0002FA03F3BA691343BB617B68CD
:101AF000BA691A603B685B6803F44033002B00F05E
:101B0000B4800023FB60604B5B6C5F4A43F480430E
:101B100053645D4B5B6C03F48043FB60FB685B4A82
:101B2000FB699B08023352F82330BB61FB6903F069
:101B300003039B000F2202FA03F3DB43BA6913404D
:101B4000BB617B68524A93422BD07B68514A9342D7
:101B500025D07B68504A93421FD07B684F4A9342FE
:101B600019D07B684E4A934213D07B684D4A93420A
:101B70000DD07B684C4A934207D07B684B4A934216
:101B800001D107230EE008230CE006230AE0052319
:101B900008E0042306E0032304E0022302E001231B
:101BA00000E00023FA6902F0030292009340BA6950
:101BB0001343BB613549FB699B080233BA6941F89D
:101BC00023203B4B9B68BB613B69DB43BA691340F5
:101BD000BB613B685B6803F48013002B03D0BA69D8
:101BE0003B691343BB61324ABB699360304BDB688E
:101BF000BB613B69DB43BA691340BB613B685B680F
:101C000003F40013002B03D0BA693B691343BB6193
:101C1000274ABB69D360264B5B68BB613B69DB43EA
:101C2000BA691340BB613B685B6803F40033002B67
:101C300003D0BA693B691343BB611D4ABB6953605A
:101C40001B4B1B68BB613B69DB43BA691340BB613B
:101C50003B685B6803F48033002B03D0BA693B69AF
:101C60001343BB61124ABB691360FB690133FB611B
:101C7000FB690F2B7FF690AE00BF00BF2437BD4637
:101C80005DF8047B704700BF003802400038014017
:101C9000000002400004024000080240000C024024
:101CA000001002400014024000180240001C0240D4
:101CB000003C014080B483B000AF78600B467B806D
:101CC00013467B707B78002B03D07A887B689A61FF
:101CD00003E07B881A047B689A6100BF0C37BD461D
:101CE0005DF8047B7047000080B586B000AFF860F7
:101CF000B9607A603B600023FB75FB689B68802BB2
:101D000006D1FB684FF480725A65012301F011B9C6
:101D1000FB68DB6B002B07D0FB685B6C002B03D0F0
:101D2000FB68DB6C002B05D1FB6840225A65012360
:101D300001F0FFB8FB6893F83430012B02D1022385
:101D400001F0F7B8FB68012283F83420FB6893F8B0
:101D50003530DBB2012B41F0E580FB68022283F8CD
:101D60003520FB6800225A65FB681B681A68FB680F
:101D70001B6842F480221A60FB681B683A681A618B
:101D80003B6A7A68B968F86801F010F9FB681B686B
:101D90001A468D4B9A4260D9FB681B688B4A934266
:101DA00057D0FB681B688A4A934250D0FB681B6877
:101DB000884A934249D0FB681B68874A934242D0C5
:101DC000FB681B68854A93423AD0FB681B68844ACB
:101DD000934232D0FB681B68824A93422AD0FB6848
:101DE0001B68814A934222D0FB681B687F4A93425A
:101DF0001AD0FB681B687E4A934212D0FB681B68AE
:101E00007C4A93420AD0FB681B687B4A934202D10A
:101E10004FF400131EE04FF000631BE04FF400137B
:101E200018E04FF4001315E04FF4001312E04FF4E4
:101E300000630FE04FF400630CE04FF4006309E02F
:101E40004FF4006306E0202304E0202302E0202377
:101E500000E02023694AD3604FE1FB681B681A4603
:101E6000674B9A4260D9FB681B68584A934257D027
:101E7000FB681B68564A934250D0FB681B68554A62
:101E8000934249D0FB681B68534A934242D0FB6897
:101E90001B68524A93423AD0FB681B68504A9342EF
:101EA00032D0FB681B684F4A93422AD0FB681B68FC
:101EB0004D4A934222D0FB681B684C4A93421AD089
:101EC000FB681B684A4A934212D0FB681B68494A68
:101ED00093420AD0FB681B68474A934202D14FF4F1
:101EE00000131EE04FF000631BE04FF4001318E0F6
:101EF0004FF4001315E04FF4001312E04FF40063A9
:101F00000FE04FF400630CE04FF4006309E04FF47E
:101F1000006306E0202304E0202302E0202300E009
:101F20002023364A9360E8E0FB681B681A46354B6D
:101F30009A4240F28280FB681B68244A934278D020
:101F4000FB681B68224A934271D0FB681B68214AD8
:101F500093426AD0FB681B681F4A934263D0FB68B8
:101F60001B681E4A93425BD0FB681B681C4A934265
:101F700053D0FB681B681B4A93424BD0FB681B681D
:101F8000194A934243D0FB681B68184A93423BD0DE
:101F9000FB681B68164A934212D0FB681B68154AFF
:101FA00093420AD0FB681B68134A934202D14FF454
:101FB00000133FE04FF000633CE04FF4001339E0C2
:101FC0004FF4001336E000BF586402401060024036
:101FD0001064024070600240706402402860024059
:101FE00028640240886002408864024040600240E9
:101FF00040640240A0600240A064024000640240CD
:10200000B8600240586002404FF4001312E04FF4F1
:1020100000630FE04FF400630CE04FF4006309E04D
:102020004FF4006306E0202304E0202302E0202395
:1020300000E020238C4AD3605FE0FB681B688B4A7A
:10204000934257D0FB681B68894A934250D0FB6883
:102050001B68884A934249D0FB681B68864A9342B2
:1020600042D0FB681B68854A93423AD0FB681B68E4
:10207000834A934232D0FB681B68824A93422AD03B
:10208000FB681B68804A934222D0FB681B687F4A2A
:1020900093421AD0FB681B687D4A934212D0FB68BA
:1020A0001B687C4A93420AD0FB681B687A4A9342B9
:1020B00002D14FF400131EE04FF000631BE04FF419
:1020C000001318E04FF4001315E04FF4001312E072
:1020D0004FF400630FE04FF400630CE04FF4006333
:1020E00009E04FF4006306E0202304E0202302E02F
:1020F000202300E020235C4A9360FB681B681A469B
:10210000664B9A4260D9FB681B68584A934257D085
:10211000FB681B68564A934250D0FB681B68554ABF
:10212000934249D0FB681B68534A934242D0FB68F4
:102130001B68524A93423AD0FB681B68504A93424C
:1021400032D0FB681B684F4A93422AD0FB681B6859
:102150004D4A934222D0FB681B684C4A93421AD0E6
:10216000FB681B684A4A934212D0FB681B68494AC5
:1021700093420AD0FB681B68474A934202D14FF44E
:1021800080131EE04FF080631BE04FF4801318E0D3
:102190004FF4801315E04FF4801312E04FF4806386
:1021A0000FE04FF480630CE04FF4806309E04FF4DC
:1021B000806306E0102304E0102302E0102300E017
:1021C0001023374AD3604FE1FB681B681A46354B32
:1021D0009A4240F28280FB681B68244A934278D07E
:1021E000FB681B68224A934271D0FB681B68214A36
:1021F00093426AD0FB681B681F4A934263D0FB6816
:102200001B681E4A93425BD0FB681B681C4A9342C2
:1022100053D0FB681B681B4A93424BD0FB681B687A
:10222000194A934243D0FB681B68184A93423BD03B
:10223000FB681B68164A934212D0FB681B68154A5C
:1022400093420AD0FB681B68134A934202D14FF4B1
:1022500080133FE04FF080633CE04FF4801339E09F
:102260004FF4801336E000BF00600240106002406F
:1022700010640240706002407064024028600240B6
:102280002864024088600240886402404060024046
:1022900040640240A0600240A064024058640240D2
:1022A00000640240B86002404FF4801312E04FF423
:1022B00080630FE04FF480630CE04FF4806309E02B
:1022C0004FF4806306E0102304E0102302E01023A3
:1022D00000E010238C4A9360C6E0FB681B681A4636
:1022E0008A4B9A4260D9FB681B68894A934257D04F
:1022F000FB681B68874A934250D0FB681B68864A7C
:10230000934249D0FB681B68844A934242D0FB68E1
:102310001B68834A93423AD0FB681B68814A934208
:1023200032D0FB681B68804A93422AD0FB681B6846
:102330007E4A934222D0FB681B687D4A93421AD0A2
:10234000FB681B687B4A934212D0FB681B687A4A81
:1023500093420AD0FB681B68784A934202D14FF43B
:1023600080131EE04FF080631BE04FF4801318E0F1
:102370004FF4801315E04FF4801312E04FF48063A4
:102380000FE04FF480630CE04FF4806309E04FF4FA
:10239000806306E0102304E0102302E0102300E035
:1023A0001023674AD3605FE0FB681B68584A93427A
:1023B00057D0FB681B68574A934250D0FB681B6894
:1023C000554A934249D0FB681B68544A934242D015
:1023D000FB681B68524A93423AD0FB681B68514A1B
:1023E000934232D0FB681B684F4A93422AD0FB6865
:1023F0001B684E4A934222D0FB681B684C4A9342AA
:102400001AD0FB681B684B4A934212D0FB681B68CA
:10241000494A93420AD0FB681B68484A934202D15A
:102420004FF480131EE04FF080631BE04FF48013E5
:1024300018E04FF4801315E04FF4801312E04FF4CE
:1024400080630FE04FF480630CE04FF4806309E099
:102450004FF4806306E0102304E0102302E0102311
:1024600000E01023364A9360FB681B681A46354B20
:102470009A4240F28280FB681B68254A934278D0DA
:10248000FB681B68234A934271D0FB681B68224A91
:1024900093426AD0FB681B68204A934263D0FB6872
:1024A0001B681F4A93425BD0FB681B681D4A93421E
:1024B00053D0FB681B681C4A93424BD0FB681B68D7
:1024C0001A4A934243D0FB681B68194A93423BD097
:1024D000FB681B68174A934212D0FB681B68164AB8
:1024E00093420AD0FB681B68144A934202D14FF40E
:1024F00000233FE04FF000733CE04FF4002339E04D
:102500004FF4002336E000BF0064024058600240F0
:10251000106002401064024070600240706402402B
:1025200028600240286402408860024088640240BB
:102530004060024040640240A0600240A06402404B
:1025400000600240586402404FF4002312E04FF450
:1025500000730FE04FF400730CE04FF4007309E0D8
:102560004FF4007306E0082304E0082302E0082388
:1025700000E008238C4AD3604EE1FB681B681A46D2
:102580008A4B9A4260D9FB681B68894A934257D0AC
:10259000FB681B68874A934250D0FB681B68864AD9
:1025A000934249D0FB681B68844A934242D0FB683F
:1025B0001B68834A93423AD0FB681B68814A934266
:1025C00032D0FB681B68804A93422AD0FB681B68A4
:1025D0007E4A934222D0FB681B687D4A93421AD000
:1025E000FB681B687B4A934212D0FB681B687A4ADF
:1025F00093420AD0FB681B68784A934202D14FF499
:1026000000231EE04FF000731BE04FF4002318E09E
:102610004FF4002315E04FF4002312E04FF4007351
:102620000FE04FF400730CE04FF4007309E04FF437
:10263000007306E0082304E0082302E0082300E01A
:102640000823594A9360E7E0FB681B681A46644B0D
:102650009A4260D9FB681B68554A934257D0FB6881
:102660001B68544A934250D0FB681B68524A9342FD
:1026700049D0FB681B68514A934242D0FB681B68F3
:102680004F4A93423AD0FB681B684E4A934232D07D
:10269000FB681B684C4A93422AD0FB681B684B4A74
:1026A000934222D0FB681B68494A93421AD0FB68C8
:1026B0001B68484A934212D0FB681B68464A934203
:1026C0000AD0FB681B68454A934202D14FF40023AD
:1026D0001EE04FF000731BE04FF4002318E04FF4AE
:1026E000002315E04FF4002312E04FF400730FE0D5
:1026F0004FF400730CE04FF4007309E04FF40073E3
:1027000006E0082304E0082302E0082300E0082391
:10271000344AD36080E0FB681B68254A934278D036
:10272000FB681B68234A934271D0FB681B68224AEE
:1027300093426AD0FB681B68204A934263D0FB68CF
:102740001B681F4A93425BD0FB681B681D4A93427B
:1027500053D0FB681B681C4A93424BD0FB681B6834
:102760001A4A934243D0FB681B68194A93423BD0F4
:10277000FB681B68174A934212D0FB681B68164A15
:1027800093420AD0FB681B68144A934202D14FF46B
:1027900000233FE04FF000733CE04FF4002339E0AA
:1027A0004FF4002336E000BF00640240B8600240EE
:1027B0001060024010640240706002407064024089
:1027C0002860024028640240886002408864024019
:1027D0004060024040640240A0600240A0640240A9
:1027E00058600240006002404FF4002312E04FF4B2
:1027F00000730FE04FF400730CE04FF4007309E036
:102800004FF4007306E0082304E0082302E00823E5
:1028100000E008238A4A9360FB681B681A46894BCC
:102820009A4260D9FB681B68874A934257D0FB687D
:102830001B68864A934250D0FB681B68844A9342C7
:1028400049D0FB681B68834A934242D0FB681B68EF
:10285000814A93423AD0FB681B68804A934232D047
:10286000FB681B687E4A93422AD0FB681B687D4A3E
:10287000934222D0FB681B687B4A93421AD0FB68C4
:102880001B687A4A934212D0FB681B68784A9342CD
:102890000AD0FB681B68774A934202D14FF4802329
:1028A0001EE04FF080731BE04FF4802318E04FF4DC
:1028B000802315E04FF4802312E04FF480730FE083
:1028C0004FF480730CE04FF4807309E04FF4807391
:1028D00006E0042304E0042302E0042300E00423D0
:1028E000654AD36050E1FB681B681A46634B9A4205
:1028F00060D9FB681B68544A934257D0FB681B6839
:10290000524A934250D0FB681B68514A934249D0C7
:10291000FB681B684F4A934242D0FB681B684E4AD3
:1029200093423AD0FB681B684C4A934232D0FB6812
:102930001B684B4A93422AD0FB681B68494A934262
:1029400022D0FB681B68484A93421AD0FB681B6878
:10295000464A934212D0FB681B68454A93420AD00C
:10296000FB681B68434A934202D14FF480231EE068
:102970004FF080731BE04FF4802318E04FF4802366
:1029800015E04FF4802312E04FF480730FE04FF412
:1029900080730CE04FF4807309E04FF4807306E01D
:1029A000042304E0042302E0042300E00423324A69
:1029B0009360E9E0FB681B681A46314B9A4240F28B
:1029C0008380FB681B68204A934279D0FB681B68B0
:1029D0001E4A934272D0FB681B681D4A93426BD01B
:1029E000FB681B681B4A934264D0FB681B681A4A49
:1029F00093425CD0FB681B68184A934254D0FB6832
:102A00001B68174A93424CD0FB681B68154A9342D7
:102A100044D0FB681B68144A93423CD0FB681B6897
:102A2000124A934234D0FB681B68114A93422CD05F
:102A3000FB681B680F4A934224D14FF4802340E087
:102A4000006002405864024010600240106402407E
:102A500070600240706402402860024028640240B6
:102A60008860024088640240406002404064024046
:102A7000A0600240A064024000640240B8600240CE
:102A8000586002404FF080731BE04FF4802318E041
:102A90004FF4802315E04FF4802312E04FF480734D
:102AA0000FE04FF480730CE04FF4807309E04FF4B3
:102AB000807306E0042304E0042302E0042300E022
:102AC00004238B4AD3605FE0FB681B68894A93420A
:102AD00057D0FB681B68884A934250D0FB681B683C
:102AE000864A934249D0FB681B68854A934242D08C
:102AF000FB681B68834A93423AD0FB681B68824A92
:102B0000934232D0FB681B68804A93422AD0FB680C
:102B10001B687F4A934222D0FB681B687D4A934220
:102B20001AD0FB681B687C4A934212D0FB681B6872
:102B30007A4A93420AD0FB681B68794A934202D1D1
:102B40004FF480231EE04FF080731BE04FF480238E
:102B500018E04FF4802315E04FF4802312E04FF487
:102B600080730FE04FF480730CE04FF4807309E042
:102B70004FF4807306E0042304E0042302E00423FE
:102B800000E004235A4A9360FB681B681A46654BB1
:102B90009A425CD9FB681B68564A934253D0FB6843
:102BA0001B68554A93424CD0FB681B68534A9342BA
:102BB00045D0FB681B68524A93423ED0FB681B68B5
:102BC000504A934237D0FB681B684F4A934230D03B
:102BD000FB681B684D4A934229D0FB681B684C4A2E
:102BE000934222D0FB681B684A4A93421AD0FB6882
:102BF0001B68494A934212D0FB681B68474A9342BC
:102C00000AD0FB681B68464A934202D14FF48033D6
:102C10001AE04FF4800317E04FF4803314E04FF4D0
:102C2000803311E04FF480330EE040230CE040236A
:102C30000AE0402308E0402306E0012304E00123EA
:102C400002E0012300E00123374AD36041E1FB6841
:102C50001B681A46354B9A427CD9FB681B68254A8B
:102C6000934273D0FB681B68234A93426CD0FB6885
:102C70001B68224A934265D0FB681B68204A934236
:102C80005ED0FB681B681F4A934257D0FB681B68E5
:102C90001D4A934250D0FB681B681C4A934249D09E
:102CA000FB681B681A4A934242D0FB681B68194AAA
:102CB00093421AD0FB681B68174A934212D0FB68F4
:102CC0001B68164A93420AD0FB681B68144A934259
:102CD00002D14FF480333AE04FF4800337E04FF4F1
:102CE000803334E04FF4803331E04FF480332EE012
:102CF00000600240106002401064024070600240B8
:102D000070640240286002402864024088600240EB
:102D1000886402404060024040640240A06002407B
:102D2000A06402405864024000640240B86002405F
:102D300040230CE040230AE0402308E0402306E063
:102D4000012304E0012302E0012300E001237B4A88
:102D50009360BEE0FB681B681A46794B9A425CD9C7
:102D6000FB681B68774A934253D0FB681B68764A1E
:102D700093424CD0FB681B68744A934245D0FB6871
:102D80001B68734A93423ED0FB681B68714A9342AA
:102D900037D0FB681B68704A934230D0FB681B68D1
:102DA0006E4A934229D0FB681B686D4A934222D039
:102DB000FB681B686B4A93421AD0FB681B686A4A1F
:102DC000934212D0FB681B68684A93420AD0FB68A2
:102DD0001B68674A934202D14FF480331AE04FF4E4
:102DE000800317E04FF4803314E04FF4803311E098
:102DF0004FF480330EE040230CE040230AE04023F0
:102E000008E0402306E0012304E0012302E001235F
:102E100000E00123574AD3605BE0FB681B68494A26
:102E2000934253D0FB681B68474A93424CD0FB68DF
:102E30001B68464A934245D0FB681B68444A93424C
:102E40003ED0FB681B68434A934237D0FB681B683F
:102E5000414A934230D0FB681B68404A934229D0D4
:102E6000FB681B683E4A934222D0FB681B683D4AC0
:102E700093421AD0FB681B683B4A934212D0FB680E
:102E80001B683A4A93420AD0FB681B68384A93424F
:102E900002D14FF480331AE04FF4800317E04FF46F
:102EA000803314E04FF4803311E04FF480330EE0B0
:102EB00040230CE040230AE0402308E0402306E0E2
:102EC000012304E0012302E0012300E00123294A59
:102ED0009360FB681B681A68FB681B6842F0160267
:102EE0001A60FB681B685A69FB681B6842F0800225
:102EF0005A61FB681B6C002B03D1FB689B6C002B99
:102F000007D0FB681B681A68FB681B6842F0080260
:102F10001A60FB681B681A68FB681B6842F00102B4
:102F20001A6005E0FB68002283F834200223FB7559
:102F3000FB7D18461837BD4680BD00BF00640240C7
:102F4000586002401060024010640240706002400D
:102F50007064024028600240286402408860024099
:102F6000886402404060024040640240A060024029
:102F7000A06402400060024080B485B000AFF860F9
:102F8000B9601346FB71FB79002B04D1FB681B6809
:102F9000BA68DA6003E0FB681B68BA681A6100234C
:102FA00018461437BD465DF8047B704780B485B081
:102FB00000AFF860B9607A603B60FB681B683A68F4
:102FC0005A60FB689B68402B08D1FB681B687A68D5
:102FD0009A60FB681B68BA68DA6007E0FB681B68E8
:102FE000BA689A60FB681B687A68DA6000BF1437B9
:102FF000BD465DF8047B704780B586B000AF786051
:1030000000237B6100F050FD38617B68002B01D10B
:10301000012399E07B68022283F835207B68002237
:1030200083F834207B681B681A687B681B6822F071
:1030300001021A600FE000F037FD02463B69D31A27
:10304000052B08D97B6820225A657B68032283F808
:103050003520032378E07B681B681B6803F00103BD
:10306000002BE8D17B681B681B687B617A69384B51
:1030700013407B617B685A687B689B681A437B6856
:10308000DB681A437B681B691A437B685B691A43D8
:103090007B689B691A437B68DB691A437B681B6A00
:1030A00013437A6913437B617B685B6A042B07D106
:1030B0007B68DA6A7B681B6B13437A6913437B6115
:1030C0007B681B687A691A607B681B685B697B6137
:1030D0007B6923F007037B617B685B6A7A69134332
:1030E0007B617B685B6A042B17D17B689B6A7A697A
:1030F00013437B617B68DB6A002B0ED0786800F09D
:10310000DFFA0346002B08D07B6840225A657B68B3
:10311000012283F83520012316E07B681B687A6959
:103120005A61786800F096FA0346FB607B68DB6DB5
:103130003F229A40FB689A607B6800225A657B6850
:10314000012283F83520002318461837BD4680BD7C
:103150003F8010F080B586B000AFF860B9607A604B
:103160003B600023FB75FB689B6D3B61FB6893F83C
:103170003430012B01D1022340E0FB68012283F8A7
:103180003420FB6893F83530DBB2012B2FD1FB687C
:10319000022283F83520FB6800225A653B687A6872
:1031A000B968F86800F028FAFB68DB6D3F229A40A6
:1031B0003B699A60FB681B681A68FB681B6842F0F1
:1031C00016021A60FB681B6C002B07D0FB681B689B
:1031D0001A68FB681B6842F008021A60FB681B68EB
:1031E0001A68FB681B6842F001021A6005E0FB6880
:1031F000002283F834200223FB75FB7D1846183724
:10320000BD4680BD80B584B000AF78607B689B6DA3
:10321000FB6000F049FCB8607B6893F83530DBB2A6
:10322000022B08D07B6880225A657B68002283F8D5
:103230003420012352E07B681B681A687B681B6896
:1032400022F016021A607B681B685A697B681B684B
:1032500022F080025A617B681B6C002B03D17B68D3
:103260009B6C002B07D07B681B681A687B681B6807
:1032700022F008021A607B681B681A687B681B686A
:1032800022F001021A6013E000F00EFC0246BB6857
:10329000D31A052B0CD97B6820225A657B68032240
:1032A00083F835207B68002283F83420032315E05F
:1032B0007B681B681B6803F00103002BE4D17B686B
:1032C000DB6D3F229A40FB689A607B68012283F89D
:1032D00035207B68002283F83420002318461037FD
:1032E000BD4680BD80B586B000AF78600023BB606E
:1032F0008E4B1B688E4AA2FB03239B0A7B617B6873
:103300009B6D3B613B691B68FB607B68DB6D082242
:103310009A40FB681340002B1AD07B681B681B681F
:1033200003F00403002B13D07B681B681A687B68CA
:103330001B6822F004021A607B68DB6D08229A4049
:103340003B699A607B685B6D43F001027B685A655C
:103350007B68DB6D01229A40FB681340002B12D082
:103360007B681B685B6903F08003002B0BD07B68D4
:10337000DB6D01229A403B699A607B685B6D43F08C
:1033800002027B685A657B68DB6D04229A40FB6809
:103390001340002B12D07B681B681B6803F00203EC
:1033A000002B0BD07B68DB6D04229A403B699A604E
:1033B0007B685B6D43F004027B685A657B68DB6D5C
:1033C00010229A40FB681340002B43D07B681B6897
:1033D0001B6803F00803002B3CD07B68DB6D1022D8
:1033E0009A403B699A607B681B681B6803F48023E2
:1033F000002B18D07B681B681B6803F40023002B8C
:1034000008D17B681B6C002B24D07B681B6C786810
:1034100098471FE07B689B6C002B1BD07B689B6CE4
:103420007868984716E07B681B681B6803F4807314
:10343000002B07D17B681B681A687B681B6822F029
:1034400008021A607B681B6C002B03D07B681B6C26
:10345000786898477B68DB6D20229A40FB681340B0
:10346000002B00F08F807B681B681B6803F0100343
:10347000002B00F087807B68DB6D20229A403B693F
:103480009A607B6893F83530DBB2052B36D17B68C8
:103490001B681A687B681B6822F016021A607B683A
:1034A0001B685A697B681B6822F080025A617B683E
:1034B0001B6C002B03D17B689B6C002B07D07B68B7
:1034C0001B681A687B681B6822F008021A607B6818
:1034D000DB6D3F229A403B699A607B68012283F84A
:1034E00035207B68002283F834207B681B6D002B1D
:1034F0007ED07B681B6D7868984779E07B681B6895
:103500001B6803F48023002B1DD07B681B681B689D
:1035100003F40023002B0DD17B685B6C002B31D0B2
:103520007B685B6C786898472CE000BF0000002047
:10353000B5814E1B7B68DB6B002B23D07B68DB6B7C
:10354000786898471EE07B681B681B6803F48073EB
:10355000002B0FD17B681B681A687B681B6822F000
:1035600010021A607B68012283F835207B680022F4
:1035700083F834207B68DB6B002B03D07B68DB6B2C
:10358000786898477B685B6D002B32D07B685B6DF9
:1035900003F00103002B22D07B68052283F835203D
:1035A0007B681B681A687B681B6822F001021A603E
:1035B000BB680133BB607A699A4207D37B681B689A
:1035C0001B6803F00103002BF2D100E000BF7B6811
:1035D000012283F835207B68002283F834207B6841
:1035E000DB6C002B05D07B68DB6C7868984700E0CB
:1035F00000BF1837BD4680BD80B485B000AFF8600D
:10360000B9607A603B60FB681B681A68FB681B68DE
:1036100022F480221A60FB681B683A685A60FB68D3
:103620009B68402B08D1FB681B687A689A60FB682E
:103630001B68BA68DA6007E0FB681B68BA689A60C2
:10364000FB681B687A68DA6000BF1437BD465DF816
:10365000047B704780B485B000AF78607B681B68DE
:10366000DBB2103B144AA2FB03231B09FB60134A85
:10367000FB6813441B781A467B68DA65FB68032BEA
:1036800009D97B681B6823F47F7323F003031A1D99
:103690007B689A6507E07B681B6823F47F7323F0DF
:1036A00003037A6893657B689B6D18461437BD46A3
:1036B0005DF8047B704700BFABAAAAAA08AF000858
:1036C00080B485B000AF78600023FB737B689B6A91
:1036D000BB607B689B69002B1FD1BB68032B56D84E
:1036E00001A252F823F000BFF93600080B3700089A
:1036F000F93600088F3700087B68DB6A03F08073B7
:10370000002B46D00123FB7343E07B68DB6AB3F1F7
:10371000C07F40D10123FB733DE07B689B69B3F51B
:10372000005F21D1BB68032B37D801A252F823F0E8
:10373000413700084737000841370008593700086B
:103740000123FB7330E07B68DB6A03F08073002B9E
:1037500025D00123FB7322E07B68DB6AB3F1C07FD5
:103760001FD10123FB731CE0BB68022B03D9BB688C
:10377000032B03D018E00123FB7315E07B68DB6AA1
:1037800003F08073002B0ED00123FB730BE000BF0E
:103790000AE000BF08E000BF06E000BF04E000BF91
:1037A00002E000BF00E000BFFB7B18461437BD46B7
:1037B0005DF8047B704700BF80B485B000AF7860CF
:1037C0007B6803F00703FB600C4BDB68BB60BA68E7
:1037D0004FF6FF031340BB60FB681A02BB6813433C
:1037E00043F0BF6343F40033BB60044ABB68D3605B
:1037F00000BF1437BD465DF8047B704700ED00E064
:1038000080B400AF044BDB681B0A03F007031846C3
:10381000BD465DF8047B704700ED00E080B483B0E6
:1038200000AF0346FB7197F90730002B0BDBFB79E8
:1038300003F01F02074997F907305B09012000FADE
:1038400002F241F8232000BF0C37BD465DF8047B2F
:10385000704700BF00E100E080B483B000AF0346D2
:103860003960FB7197F90730002B0ADB3B68DAB24D
:103870000C4997F907301201D2B20B4483F80023A8
:103880000AE03B68DAB20849FB7903F00F03043B16
:103890001201D2B20B441A7600BF0C37BD465DF858
:1038A000047B704700E100E000ED00E080B489B0E7
:1038B00000AFF860B9607A60FB6803F00703FB6152
:1038C000FB69C3F10703042B28BF0423BB61FB6919
:1038D0000433062B02D9FB69033B00E000237B6124
:1038E0004FF0FF32BB6902FA03F3DA43BB681A40B8
:1038F0007B699A404FF0FF317B6901FA03F3D943AA
:103900007B680B40134318462437BD465DF8047BA3
:103910007047000080B582B000AF78607B68013BE3
:10392000B3F1807F01D301230FE00A4A7B68013B9A
:1039300053600F214FF0FF30FFF78EFF054B002241
:103940009A60044B07221A60002318460837BD46C8
:1039500080BD00BF10E000E080B582B000AF7860AD
:103960007868FFF729FF00BF0837BD4680BD80B5E6
:1039700086B000AF0346B9607A60FB7300237B61B9
:10398000FFF73EFF78617A68B9687869FFF78EFFC4
:10399000024697F90F3011461846FFF75DFF00BF4A
:1039A0001837BD4680BD80B582B000AF0346FB71BD
:1039B00097F907301846FFF731FF00BF0837BD46BB
:1039C00080BD80B582B000AF78607868FFF7A2FF55
:1039D000034618460837BD4680BD000080B500AFDD
:1039E0000E4B1B680D4A43F4007313600B4B1B68AE
:1039F0000A4A43F480631360084B1B68074A43F488
:103A0000807313600320FFF7A7FF0F2000F008F872
:103A100003F0BAFE0023184680BD00BF003C024000
:103A200080B582B000AF7860124B1A68124B1B78D9
:103A300019464FF47A73B3FBF1F3B2FBF3F3184674
:103A4000FFF7BFFF0346002B01D001230EE07B6888
:103A50000F2B0AD8002279684FF0FF30FFF787FF5D
:103A6000064A7B681360002300E0012318460837EC
:103A7000BD4680BD0000002008000020040000209A
:103A800080B400AF064B1B781A46064B1B681344E4
:103A9000044A136000BFBD465DF8047B704700BF59
:103AA00008000020F401002080B400AF034B1B6825
:103AB0001846BD465DF8047B704700BFF401002046
:103AC00080B584B000AF7860FFF7EEFFB8607B6828
:103AD000FB60FB68B3F1FF3F05D00A4B1B781A4629
:103AE000FB681344FB6000BFFFF7DEFF0246BB68C4
:103AF000D31AFA689A42F7D800BF00BF1037BD4604
:103B000080BD00BF0800002080B584B000AF7860A1
:103B10007B68002B01D101232BE17B6893F83D30BA
:103B2000DBB2002B06D17B68002283F83C2078684A
:103B300003F062FB7B68242283F83D207B681B68CE
:103B40001A687B681B6822F001021A607B681B6898
:103B50001A687B681B6842F400421A607B681B6825
:103B60001A687B681B6822F400421A60FDF7DEFECB
:103B7000F8607B685B68814A934207D8FB68804A9B
:103B8000934294BF01230023DBB206E0FB687D4A29
:103B9000934294BF01230023DBB2002B01D0012309
:103BA000E7E0FB68784AA2FB03239B0CBB607B68C1
:103BB0001B685B6823F03F017B681B68BA680A4397
:103BC0005A607B681B681B6A23F03F017B685B6857
:103BD0006A4A934202D8BB68013309E0BB684FF4DC
:103BE000967202FB03F3694AA2FB03239B0901338C
:103BF0007A6812680B4313627B681B68DB6923F4E5
:103C00004F4222F0FF027B685B685C498B4219D807
:103C1000FB68591E7B685B685B00B1FBF3F3591CC2
:103C200040F6FC730B40002B0AD0FB68591E7B68E2
:103C30005B685B00B1FBF3F30133C3F30B0351E0AB
:103C400004234FE07B689B68002B11D1FB68581E52
:103C50007B6859680B465B000B44B0FBF3F3013300
:103C6000C3F30B03002B0CBF01230023DBB212E0D4
:103C7000FB68581E7B6859680B469B000B449900F3
:103C80000B44B0FBF3F30133C3F30B03002B0CBF66
:103C900001230023DBB2002B01D0012322E07B684B
:103CA0009B68002B0ED1FB68581E7B6859680B4639
:103CB0005B000B44B0FBF3F30133C3F30B0343F49A
:103CC00000430FE0FB68581E7B6859680B469B0059
:103CD0000B4499000B44B0FBF3F30133C3F30B0324
:103CE00043F44043796809681343CB617B681B68E0
:103CF0001B6823F0C0017B68DA697B681B6A1A4382
:103D00007B681B680A431A607B681B689B6823F406
:103D1000034323F0FF037A6811697A68D26811437C
:103D20007A6812680B4393607B681B68DB6823F03A
:103D3000FF017B685A697B689B691A437B681B6833
:103D40000A43DA607B681B681A687B681B6842F06C
:103D500001021A607B6800221A647B68202283F8C3
:103D60003D207B6800221A637B68002283F83E2096
:103D7000002318461037BD4680BD00BFA086010055
:103D80007F841E00FF083D0083DE1B43D34D62107D
:103D900080B588B002AFF8607A601A460B467B8126
:103DA00013463B81FFF780FE7861FB6893F83D3056
:103DB000DBB2202B40F0E0807B69009319230122C5
:103DC0007049F86800F064FC0346002B01D0022320
:103DD000D3E0FB6893F83C30012B01D10223CCE007
:103DE000FB68012283F83C20FB681B681B6803F01A
:103DF0000103012B07D0FB681B681A68FB681B686E
:103E000042F001021A60FB681B681A68FB681B68B5
:103E100022F400621A60FB68212283F83D20FB68CF
:103E2000102283F83E20FB6800221A64FB687A683F
:103E30005A62FB683A895A85FB685B8D9AB2FB68C7
:103E40001A85FB68504ADA6279897B693A6AF868B0
:103E500000F0CEFA0346002B01D001238DE00023B1
:103E60003B61FB681B685B693B61FB681B689B6986
:103E70003B613B6966E07A69396AF86800F022FDC7
:103E80000346002B0DD0FB681B6C042B07D1FB688D
:103E90001B681A68FB681B6842F400721A600123F1
:103EA0006BE0FB685B6A1A78FB681B681A61FB6849
:103EB0005B6A5A1CFB685A62FB685B8D9BB2013BD4
:103EC0009AB2FB685A85FB681B8D013B9AB2FB686E
:103ED0001A85FB681B685B6903F00403042B1BD184
:103EE000FB681B8D002B17D0FB685B6A1A78FB6898
:103EF0001B681A61FB685B6A5A1CFB685A62FB68A4
:103F00005B8D9BB2013B9AB2FB685A85FB681B8DA7
:103F1000013B9AB2FB681A857A69396AF86800F041
:103F200019FD0346002B0DD0FB681B6C042B07D139
:103F3000FB681B681A68FB681B6842F400721A6011
:103F400001231AE0FB681B8D002B94D1FB681B68D2
:103F50001A68FB681B6842F400721A60FB68202232
:103F600083F83D20FB68002283F83E20FB68002296
:103F700083F83C20002300E0022318461837BD4692
:103F800080BD00BF020010000000FFFF80B58CB0B4
:103F900002AFF8607A601A460B467B8113463B817C
:103FA000FFF782FD7862FB6893F83D30DBB2202B8F
:103FB00040F017827B6A0093192301227C49F8683C
:103FC00000F066FB0346002B01D002230AE2FB68E7
:103FD00093F83C30012B01D1022303E2FB6801225C
:103FE00083F83C20FB681B681B6803F00103012B6E
:103FF00007D0FB681B681A68FB681B6842F0010267
:104000001A60FB681B681A68FB681B6822F4006270
:104010001A60FB68222283F83D20FB68102283F897
:104020003E20FB6800221A64FB687A685A62FB68CB
:104030003A895A85FB685B8D9AB2FB681A85FB68E2
:104040005C4ADA6279897B6A3A6BF86800F052FA66
:104050000346002B01D00123C4E1FB681B8D002B1C
:1040600013D100233B62FB681B685B693B62FB6802
:104070001B689B693B623B6AFB681B681A68FB68AC
:104080001B6842F400721A6098E1FB681B8D012BDB
:104090001BD1FB681B681A68FB681B6822F48062EE
:1040A0001A600023FB61FB681B685B69FB61FB68AE
:1040B0001B689B69FB61FB69FB681B681A68FB68EE
:1040C0001B6842F400721A6078E1FB681B8D022BBA
:1040D0001BD1FB681B681A68FB681B6822F48062AE
:1040E0001A60FB681B681A68FB681B6842F4006270
:1040F0001A600023BB61FB681B685B69BB61FB68DE
:104100001B689B69BB61BB6958E1FB681B681A6847
:10411000FB681B6842F480621A6000237B61FB68C5
:104120001B685B697B61FB681B689B697B617B69C2
:1041300044E1FB681B8D032B00F2F180FB681B8DB3
:10414000012B23D17A6A396BF86800F04BFC0346E7
:10415000002B01D0012345E1FB681B681A69FB684D
:104160005B6AD2B21A70FB685B6A5A1CFB685A62BF
:10417000FB681B8D013B9AB2FB681A85FB685B8D5F
:104180009BB2013B9AB2FB685A8517E1FB681B8D15
:10419000022B4ED17B6A00933B6B00220649F868E4
:1041A00000F076FA0346002B08D001231AE100BF85
:1041B000020010000000FFFF04000100FB681B6804
:1041C0001A68FB681B6842F400721A60FB681B687F
:1041D0001A69FB685B6AD2B21A70FB685B6A5A1C88
:1041E000FB685A62FB681B8D013B9AB2FB681A851B
:1041F000FB685B8D9BB2013B9AB2FB685A85FB68FA
:104200001B681A69FB685B6AD2B21A70FB685B6A4A
:104210005A1CFB685A62FB681B8D013B9AB2FB6813
:104220001A85FB685B8D9BB2013B9AB2FB685A858D
:10423000C4E07B6A00933B6B00226C49F86800F095
:1042400027FA0346002B01D00123CBE0FB681B6853
:104250001A68FB681B6822F480621A60FB681B689E
:104260001A69FB685B6AD2B21A70FB685B6A5A1CF7
:10427000FB685A62FB681B8D013B9AB2FB681A858A
:10428000FB685B8D9BB2013B9AB2FB685A857B6AE7
:1042900000933B6B00225549F86800F0F9F903469A
:1042A000002B01D001239DE0FB681B681A68FB68A6
:1042B0001B6842F400721A60FB681B681A69FB688D
:1042C0005B6AD2B21A70FB685B6A5A1CFB685A625E
:1042D000FB681B8D013B9AB2FB681A85FB685B8DFE
:1042E0009BB2013B9AB2FB685A85FB681B681A694E
:1042F000FB685B6AD2B21A70FB685B6A5A1CFB6887
:104300005A62FB681B8D013B9AB2FB681A85FB68F9
:104310005B8D9BB2013B9AB2FB685A854EE07A6A8C
:10432000396BF86800F05EFB0346002B01D00123D7
:1043300058E0FB681B681A69FB685B6AD2B21A70A6
:10434000FB685B6A5A1CFB685A62FB681B8D013B69
:104350009AB2FB681A85FB685B8D9BB2013B9AB2EF
:10436000FB685A85FB681B685B6903F00403042B38
:1043700024D1FB681B8D032B07D1FB681B681A68CF
:10438000FB681B6822F480621A60FB681B681A696C
:10439000FB685B6AD2B21A70FB685B6A5A1CFB68E6
:1043A0005A62FB681B8D013B9AB2FB681A85FB6859
:1043B0005B8D9BB2013B9AB2FB685A85FB681B8DF3
:1043C000002B7FF4B6AEFB68202283F83D20FB680B
:1043D000002283F83E20FB68002283F83C20002363
:1043E00000E0022318462837BD4680BD04000100C6
:1043F00080B588B002AFF8607A603B600B467B8185
:10440000FB68DB6A7B617B69082B06D07B69012B2B
:1044100003D07B6913F5803F08D1FB681B681A68DD
:10442000FB681B6842F480721A600BE0FB681B6B30
:10443000122B07D1FB681B681A68FB681B6842F4E3
:1044400080721A603B6800937B6800224FF0011174
:10445000F86800F01DF90346002B0DD0FB681B68BF
:104460001B6803F48073B3F5807F03D1FB684FF4BE
:1044700000721A64032335E0FB681B69B3F5804FB3
:1044800008D17B89DBB21A46FB681B6802F0FE028A
:104490001A611BE07B89DB11DBB203F00603DBB2A0
:1044A00063F00F03DAB2FB681B681A613B687A6835
:1044B0000E49F86800F066F90346002B01D001238D
:1044C00010E07B89DAB2FB681B681A613B687A6886
:1044D0000749F86800F056F90346002B01D0012384
:1044E00000E0002318461837BD4680BD08000100D3
:1044F0000200010080B588B002AFF8607A603B60CE
:104500000B467B81FB68DB6A7B61FB681B681A6872
:10451000FB681B6842F480621A607B69082B06D036
:104520007B69012B03D07B6913F5803F08D1FB68C1
:104530001B681A68FB681B6842F480721A600BE003
:10454000FB681B6B112B07D1FB681B681A68FB68A3
:104550001B6842F480721A603B6800937B680022FB
:104560004FF00111F86800F093F80346002B0DD0CE
:10457000FB681B681B6803F48073B3F5807F03D16D
:10458000FB684FF400721A64032379E0FB681B692F
:10459000B3F5804F08D17B89DBB243F00103DAB277
:1045A000FB681B681A615FE07B89DB11DBB203F0FB
:1045B0000603DBB263F00F03DAB2FB681B681A6113
:1045C0003B687A683049F86800F0DCF80346002B55
:1045D00001D0012354E07B89DAB2FB681B681A61C1
:1045E0003B687A682949F86800F0CCF80346002B4C
:1045F00001D0012344E000233B61FB681B685B6939
:104600003B61FB681B689B693B613B69FB681B68FE
:104610001A68FB681B6842F480721A603B6800935A
:104620007B6800224FF00111F86800F031F8034672
:10463000002B0DD0FB681B681B6803F48073B3F577
:10464000807F03D1FB684FF400721A64032317E0E4
:104650007B89DB11DBB203F00603DBB263F00E03F0
:10466000DAB2FB681B681A613B687A680749F86828
:1046700000F088F80346002B01D0012300E000235E
:1046800018461837BD4680BD080001000200010031
:1046900080B584B000AFF860B9603B601346FB7131
:1046A00048E03B68B3F1FF3F44D0FFF7FDF9024615
:1046B000BB69D31A3A689A4202D33B68002B39D1BE
:1046C000BB681B0CDBB2012B0DD1FB681B685B695F
:1046D000DA43BB6813409BB2002B0CBF01230023BD
:1046E000DBB21A460CE0FB681B689B69DA43BB68C7
:1046F00013409BB2002B0CBF01230023DBB21A46F0
:10470000FB799A4216D1FB6800221A63FB682022CB
:1047100083F83D20FB68002283F83E20FB681B6C79
:1047200043F02002FB681A64FB68002283F83C20F7
:10473000012323E0BB681B0CDBB2012B0DD1FB680E
:104740001B685B69DA43BB6813409BB2002B0CBF4C
:1047500001230023DBB21A460CE0FB681B689B694F
:10476000DA43BB6813409BB2002B0CBF012300232C
:10477000DBB21A46FB799A4293D0002318461037D1
:10478000BD4680BD80B584B000AFF860B9607A6086
:104790003B6071E0FB681B685B6903F48063B3F501
:1047A000806F23D1FB681B681A68FB681B6842F4A2
:1047B00000721A60FB681B686FF480625A61FB68C4
:1047C00000221A63FB68202283F83D20FB68002248
:1047D00083F83E20FB681B6C43F00402FB681A64FC
:1047E000FB68002283F83C20012367E07B68B3F17B
:1047F000FF3F41D0FFF758F902463B68D31A7A6869
:104800009A4202D37B68002B36D1BB681B0CDBB20B
:10481000012B0CD1FB681B685B69DA43BB68134052
:104820009BB2002B14BF01230023DBB20BE0FB681B
:104830001B689B69DA43BB6813409BB2002B14BF13
:1048400001230023DBB2002B16D0FB6800221A6381
:10485000FB68202283F83D20FB68002283F83E207D
:10486000FB681B6C43F02002FB681A64FB680022A3
:1048700083F83C20012321E0BB681B0CDBB2012B39
:104880000CD1FB681B685B69DA43BB6813409BB2C1
:10489000002B14BF01230023DBB20BE0FB681B6875
:1048A0009B69DA43BB6813409BB2002B14BF012302
:1048B0000023DBB2002B7FF46DAF002318461037C6
:1048C000BD4680BD80B584B000AFF860B9607A6045
:1048D00034E0F86800F0E3F80346002B01D0012330
:1048E00034E0BB68B3F1FF3F28D0FFF7DDF80246A4
:1048F0007B68D31ABA689A4202D3BB68002B1DD1D9
:10490000FB681B685B6903F08003802B16D0FB6893
:1049100000221A63FB68202283F83D20FB680022F6
:1049200083F83E20FB681B6C43F02002FB681A648E
:10493000FB68002283F83C20012307E0FB681B682A
:104940005B6903F08003802BC3D100231846103726
:10495000BD4680BD80B584B000AFF860B9607A60B4
:1049600034E0F86800F09BF80346002B01D00123E7
:1049700034E0BB68B3F1FF3F28D0FFF795F802465B
:104980007B68D31ABA689A4202D3BB68002B1DD148
:10499000FB681B685B6903F00403042B16D0FB68FB
:1049A00000221A63FB68202283F83D20FB68002266
:1049B00083F83E20FB681B6C43F02002FB681A64FE
:1049C000FB68002283F83C20012307E0FB681B689A
:1049D0005B6903F00403042BC3D10023184610378E
:1049E000BD4680BD80B584B000AFF860B9607A6024
:1049F00049E0FB681B685B6903F01003102B19D1B9
:104A0000FB681B686FF010025A61FB6800221A6392
:104A1000FB68202283F83D20FB68002283F83E20BB
:104A2000FB681A6CFB681A64FB68002283F83C2060
:104A3000012330E0FFF738F802467B68D31ABA68E2
:104A40009A4202D3BB68002B1DD1FB681B685B69CF
:104A500003F04003402B16D0FB6800221A63FB686A
:104A6000202283F83D20FB68002283F83E20FB686B
:104A70001B6C43F02002FB681A64FB68002283F879
:104A80003C20012307E0FB681B685B6903F04003DF
:104A9000402BAED1002318461037BD4680BD80B4F0
:104AA00083B000AF78607B681B685B6903F4806348
:104AB000B3F5806F1BD17B681B686FF480625A610D
:104AC0007B6800221A637B68202283F83D207B6884
:104AD000002283F83E207B681B6C43F004027B6855
:104AE0001A647B68002283F83C20012300E0002345
:104AF00018460C37BD465DF8047B704780B582B020
:104B000000AF78607B68002B01D1012341E07B6816
:104B100093F83D30DBB2002B06D17B68002283F88E
:104B20003C20786802F0A4FC7B68022283F83D20D8
:104B30007B681A687B6804331946104600F052FE01
:104B40007B68012283F846207B68012283F83E209F
:104B50007B68012283F83F207B68012283F8402094
:104B60007B68012283F841207B68012283F8422080
:104B70007B68012283F843207B68012283F844206C
:104B80007B68012283F845207B68012283F83D2061
:104B9000002318460837BD4680BD80B582B000AFFF
:104BA00078607B68002B01D1012341E07B6893F89A
:104BB0003D30DBB2002B06D17B68002283F83C201D
:104BC000786800F039F87B68022283F83D207B6822
:104BD0001A687B6804331946104600F003FE7B68B0
:104BE000012283F846207B68012283F83E207B68FF
:104BF000012283F83F207B68012283F840207B68F4
:104C0000012283F841207B68012283F842207B68DF
:104C1000012283F843207B68012283F844207B68CB
:104C2000012283F845207B68012283F83D20002380
:104C300018460837BD4680BD80B483B000AF7860A9
:104C400000BF0C37BD465DF8047B704780B584B06B
:104C500000AF786039603B68002B09D17B6893F81E
:104C60003E30DBB2012B14BF01230023DBB222E074
:104C70003B68042B09D17B6893F83F30DBB2012BF2
:104C800014BF01230023DBB215E03B68082B09D1D8
:104C90007B6893F84030DBB2012B14BF0123002363
:104CA000DBB208E07B6893F84130DBB2012B14BF24
:104CB00001230023DBB2002B01D001237CE03B6801
:104CC000002B04D17B68022283F83E2013E03B686E
:104CD000042B04D17B68022283F83F200BE03B6861
:104CE000082B04D17B68022283F8402003E07B6814
:104CF000022283F841207B681B680122396818462C
:104D000001F08AF97B681B682D4A934204D07B68C6
:104D10001B682C4A934201D1012300E00023002BA1
:104D200007D07B681B685A6C7B681B6842F40042A2
:104D30005A647B681B68224A934222D07B681B68B6
:104D4000B3F1804F1DD07B681B681F4A934218D077
:104D50007B681B681D4A934213D07B681B681C4A02
:104D600093420ED07B681B68164A934209D07B6839
:104D70001B68184A934204D07B681B68164A93420A
:104D800011D17B681B689B6803F00703FB60FB681D
:104D9000062B10D07B681B681A687B681B6842F082
:104DA00001021A6007E07B681B681A687B681B6851
:104DB00042F001021A60002318461037BD4680BD3C
:104DC00000000140000401400004004000080040D1
:104DD000000C0040004001400018004080B582B047
:104DE00000AF78607B68002B01D1012341E07B6834
:104DF00093F83D30DBB2002B06D17B68002283F8AC
:104E00003C20786800F039F87B68022283F83D2066
:104E10007B681A687B6804331946104600F0E2FC90
:104E20007B68012283F846207B68012283F83E20BC
:104E30007B68012283F83F207B68012283F84020B1
:104E40007B68012283F841207B68012283F842209D
:104E50007B68012283F843207B68012283F8442089
:104E60007B68012283F845207B68012283F83D207E
:104E7000002318460837BD4680BD80B483B000AF1C
:104E8000786000BF0C37BD465DF8047B70470000BA
:104E900080B584B000AF786039600023FB733B6855
:104EA000002B04D17B6893F83E30DBB213E03B6803
:104EB000042B04D17B6893F83F30DBB20BE03B68F6
:104EC000082B04D17B6893F84030DBB203E07B68A9
:104ED00093F84130DBB2BB733B68002B04D17B6895
:104EE00093F84230DBB213E03B68042B04D17B68BB
:104EF00093F84330DBB20BE03B68082B04D17B68AE
:104F000093F84430DBB203E07B6893F84530DBB2C2
:104F10007B73BB7B012B02D17B7B012B01D0012357
:104F2000CCE03B68002B04D17B68022283F83E2052
:104F300013E03B68042B04D17B68022283F83F20F6
:104F40000BE03B68082B04D17B68022283F84020E9
:104F500003E07B68022283F841203B68002B04D1E8
:104F60007B68022283F8422013E03B68042B04D1C3
:104F70007B68022283F843200BE03B68082B04D1B6
:104F80007B68022283F8442003E07B68022283F8D6
:104F900045203B680C2B41D801A252F823F000BFFA
:104FA000D54F00081D5000081D5000081D50000876
:104FB000E74F00081D5000081D5000081D50000854
:104FC000F94F00081D5000081D5000081D50000832
:104FD0000B5000087B681B68DA687B681B6842F02E
:104FE0000202DA601DE07B681B68DA687B681B6878
:104FF00042F00402DA6014E07B681B68DA687B68C0
:105000001B6842F00802DA600BE07B681B68DA6814
:105010007B681B6842F01002DA6002E00123FB7338
:1050200000BFFB7B002B48D17B681B6801223968DD
:10503000184600F0F1FF7B681B68224A934222D099
:105040007B681B68B3F1804F1DD07B681B681E4ACC
:10505000934218D07B681B681C4A934213D07B682C
:105060001B681B4A93420ED07B681B68194A934207
:1050700009D07B681B68184A934204D07B681B6880
:10508000164A934211D17B681B689B6803F00703A3
:10509000BB60BB68062B10D07B681B681A687B68F6
:1050A0001B6842F001021A6007E07B681B681A68FF
:1050B0007B681B6842F001021A60FB7B18461037C0
:1050C000BD4680BD000001400004004000080040D3
:1050D000000C004000040140004001400018004066
:1050E00080B584B000AF78607B681B68DB68FB60CC
:1050F0007B681B681B69BB60BB6803F00203002B65
:1051000020D0FB6803F00203002B1BD07B681B68D8
:105110006FF002021A617B6801221A777B681B68B4
:105120009B6903F00303002B03D0786802F01AFB9D
:1051300005E0786800F038FB786800F03FFB7B689A
:1051400000221A77BB6803F00403002B20D0FB6811
:1051500003F00403002B1BD07B681B686FF0040274
:105160001A617B6802221A777B681B689B6903F4CB
:105170004073002B03D0786802F0F4FA05E07868F9
:1051800000F012FB786800F019FB7B6800221A77A8
:10519000BB6803F00803002B20D0FB6803F0080372
:1051A000002B1BD07B681B686FF008021A617B68BC
:1051B00004221A777B681B68DB6903F00303002B6A
:1051C00003D0786802F0CEFA05E0786800F0ECFAD7
:1051D000786800F0F3FA7B6800221A77BB6803F066
:1051E0001003002B20D0FB6803F01003002B1BD012
:1051F0007B681B686FF010021A617B6808221A77BF
:105200007B681B68DB6903F44073002B03D078686C
:1052100002F0A8FA05E0786800F0C6FA786800F0B5
:10522000CDFA7B6800221A77BB6803F00103002BDC
:105230000CD0FB6803F00103002B07D07B681B68D0
:105240006FF001021A61786800F0A4FABB6803F0FD
:105250008003002B0CD0FB6803F08003002B07D0E9
:105260007B681B686FF080021A61786800F080FF2D
:10527000BB6803F04003002B0CD0FB6803F0400335
:10528000002B07D07B681B686FF040021A617868BA
:1052900000F09EFABB6803F02003002B0CD0FB68E3
:1052A00003F02003002B07D07B681B686FF02002FF
:1052B0001A61786800F052FF00BF1037BD4680BD0C
:1052C00080B586B000AFF860B9607A600023FB75E6
:1052D000FB6893F83C30012B01D1022388E0FB6886
:1052E000012283F83C207B68002B1BD1FB681868E7
:1052F000BB681968BB685A68BB68DB6800F0C8FC0B
:10530000FB681B689A69FB681B6822F00C029A61B3
:10531000FB681B689969BB689A68FB681B680A434D
:105320009A6160E07B68042B1CD1FB681868BB683D
:105330001968BB685A68BB68DB6800F04CFDFB6805
:105340001B689A69FB681B6822F440629A61FB68DB
:105350001B689969BB689B681A02FB681B680A4353
:105360009A6140E07B68082B1BD1FB681868BB681A
:105370001968BB685A68BB68DB6800F099FDFB6878
:105380001B68DA69FB681B6822F00C02DA61FB68B3
:105390001B68D969BB689A68FB681B680A43DA61B5
:1053A00021E07B680C2B1CD1FB681868BB6819686E
:1053B000BB685A68BB68DB6800F0B6FDFB681B6819
:1053C000DA69FB681B6822F44062DA61FB681B68DB
:1053D000D969BB689B681A02FB681B680A43DA61DB
:1053E00001E00123FB75FB68002283F83C20FB7D74
:1053F00018461837BD4680BD80B586B000AFF8604E
:10540000B9607A600023FB75FB6893F83C30012B90
:1054100001D10223AEE0FB68012283F83C207B68C7
:105420000C2B00F29F8001A252F823F06154000877
:10543000655500086555000865550008A154000829
:10544000655500086555000865550008E3540008D7
:105450006555000865550008655500082355000886
:10546000FB681B68B968184600F062FAFB681B68A5
:105470009A69FB681B6842F008029A61FB681B6826
:105480009A69FB681B6822F004029A61FB681B683A
:105490009969BB681A69FB681B680A439A6164E0F2
:1054A000FB681B68B968184600F0B2FAFB681B6815
:1054B0009A69FB681B6842F400629A61FB681B688A
:1054C0009A69FB681B6822F480629A61FB681B681A
:1054D0009969BB681B691A02FB681B680A439A61D9
:1054E00043E0FB681B68B968184600F007FBFB68DF
:1054F0001B68DA69FB681B6842F00802DA61FB6826
:105500001B68DA69FB681B6822F00402DA61FB6839
:105510001B68D969BB681A69FB681B680A43DA61B2
:1055200023E0FB681B68B968184600F05BFBFB686A
:105530001B68DA69FB681B6842F40062DA61FB6889
:105540001B68DA69FB681B6822F48062DA61FB6819
:105550001B68D969BB681B691A02FB681B680A4390
:10556000DA6102E00123FB7500BFFB68002283F8CB
:105570003C20FB7D18461837BD4680BD80B584B001
:1055800000AF786039600023FB737B6893F83C3090
:10559000012B01D10223B4E07B68012283F83C2077
:1055A0007B68022283F83D207B681B689B68BB6098
:1055B000BB6823F07703BB60BB6823F47F43BB6009
:1055C0007B681B68BA689A603B681B68B3F5005F2C
:1055D0003ED0B3F5005F00F28780B3F5805F00F046
:1055E0008680B3F5805F7FD8702B1AD0702B7BD864
:1055F000602B50D0602B77D8502B3CD0502B73D8D9
:10560000402B58D0402B6FD8302B64D0302B6BD828
:10561000202B60D0202B67D8002B5CD0102B5AD0C9
:1056200062E07B6818683B6899683B685A683B6829
:10563000DB6800F0D1FC7B681B689B68BB60BB68C3
:1056400043F07703BB607B681B68BA689A604FE0E1
:105650007B6818683B6899683B685A683B68DB68F8
:1056600000F0BAFC7B681B689A687B681B6842F490
:1056700080429A603CE07B6818683B6859683B68E8
:10568000DB681A4600F078FB7B681B6850211846DF
:1056900000F087FC2CE07B6818683B6859683B6821
:1056A000DB681A4600F0D4FB7B681B686021184653
:1056B00000F077FC1CE07B6818683B6859683B6821
:1056C000DB681A4600F058FB7B681B6840211846CF
:1056D00000F067FC0CE07B681A683B681B681946A1
:1056E000104600F05EFC03E00123FB7300E000BF06
:1056F0007B68012283F83D207B68002283F83C20F0
:10570000FB7B18461037BD4680BD000080B485B0D5
:1057100000AF786039600023FB603B680C2B31D808
:1057200001A252F823F000BF5D570008855700081A
:1057300085570008855700086757000885570008F7
:1057400085570008855700087157000885570008DD
:1057500085570008855700087B5700087B681B6841
:105760005B6BFB600FE07B681B689B6BFB600AE078
:105770007B681B68DB6BFB6005E07B681B681B6C50
:10578000FB6000E000BFFB6818461437BD465DF8BB
:10579000047B704780B483B000AF786000BF0C37E3
:1057A000BD465DF8047B704780B483B000AF78607D
:1057B00000BF0C37BD465DF8047B704780B483B0F2
:1057C00000AF786000BF0C37BD465DF8047B7047C2
:1057D00080B483B000AF786000BF0C37BD465DF881
:1057E000047B704780B485B000AF786039607B6817
:1057F0001B68FB607B68434A934213D07B68B3F11C
:10580000804F0FD07B68404A93420BD07B683F4A61
:10581000934207D07B683E4A934203D07B683D4A5F
:10582000934208D1FB6823F07003FB603B685B6820
:10583000FA681343FB607B68324A93422BD07B6843
:10584000B3F1804F27D07B682F4A934223D07B68E7
:105850002E4A93421FD07B682D4A93421BD07B680F
:105860002C4A934217D07B682B4A934213D07B6813
:105870002A4A93420FD07B68294A93420BD07B6817
:10588000284A934207D07B68274A934203D07B681B
:10589000264A934208D1FB6823F44073FB603B68BF
:1058A000DB68FA681343FB60FB6823F080023B6807
:1058B0005B691343FB603B689A687B68DA623B680C
:1058C0001A687B689A627B680E4A934203D07B68B1
:1058D000104A934203D13B681A697B681A637B685C
:1058E0001B6843F004027B681A607B6801225A61DE
:1058F0007B68FA681A6000BF1437BD465DF8047B08
:10590000704700BF00000140000400400008004054
:10591000000C0040000401400040014000440140F0
:105920000048014000180040001C004000200040DA
:1059300080B487B000AF786039607B681B6A7B6198
:105940007B681B6A23F001027B681A627B685B68D4
:105950003B617B689B69FB60FB6823F07003FB6025
:10596000FB6823F00303FB603B681B68FA68134382
:10597000FB607B6923F002037B613B689B687A696B
:1059800013437B617B68204A934203D07B681F4AA4
:1059900093420CD17B6923F008037B613B68DB6891
:1059A0007A6913437B617B6923F004037B617B6825
:1059B000154A934203D07B68144A934211D13B6944
:1059C00023F480733B613B6923F400733B613B68C4
:1059D0005B693A6913433B613B689B693A691343CE
:1059E0003B617B683A695A607B68FA689A613B68F8
:1059F0005A687B685A637B687A691A6200BF1C37F1
:105A0000BD465DF8047B7047000001400004014082
:105A100080B487B000AF786039607B681B6A7B61B7
:105A20007B681B6A23F010027B681A627B685B68E4
:105A30003B617B689B69FB60FB6823F4E043FB6090
:105A4000FB6823F44073FB603B681B681B02FA6829
:105A50001343FB607B6923F020037B613B689B68F9
:105A60001B017A6913437B617B68224A934203D00E
:105A70007B68214A93420DD17B6923F080037B61CF
:105A80003B68DB681B017A6913437B617B6923F008
:105A900040037B617B68174A934203D07B68164AB8
:105AA000934213D13B6923F480633B613B6923F448
:105AB00000633B613B685B699B003A6913433B6150
:105AC0003B689B699B003A6913433B617B683A6979
:105AD0005A607B68FA689A613B685A687B689A6387
